:020000040800F2
:10000000B09C00209902000863200008A3020008A9
:100010005F20000845180008FD45000800000000AA
:10002000000000000000000000000000AD0100081A
:10003000831900080000000035020008850200084E
:10004000C3020008C3020008C302000851320008BE
:10005000C3020008C3020008C3020008C30200086C
:10006000C3020008C3020008C3020008C30200085C
:10007000C3020008C3020008C3020008C30200084C
:10008000C3020008C3020008C3020008C30200083C
:10009000C3020008C3020008C30200088519000853
:1000A000C3020008C3020008C3020008C30200081C
:1000B0000D3B0008753B0008913B0008C302000897
:1000C000C3020008C3020008C3020008C3020008FC
:1000D000C3020008CD3F0008DD3F0008D9410008F9
:1000E000C3020008C3020008C3020008C3020008DC
:1000F000C3020008C3020008C3020008C3020008CC
:10010000C3020008C30200080D3C0008C302000837
:10011000C30200081D3F0008C3020008C302000814
:10012000C3020008C3020008C3020008C30200089B
:10013000DFF80CD000F078FC004800479556000826
:10014000B09C002080F309887047EFF30980704766
:10015000684680F3098804480078C00714BF02206D
:10016000032080F31488704708610008DFF818C086
:10017000EFF305831B0618BF6047EFF31483DB071B
:1001800008BF604700DF7047F9560008DFF818C065
:10019000EFF305831B0618BF6047EFF31483DB07FB
:1001A00008BF604700DF7047E1590008EFF309809E
:1001B000816911F8021C39BB90E80F10E047EFF39A
:1001C000098C194B93E80600914218D059B10CB430
:1001D0004FF0010381F826302CE9F00FC1F82CC054
:1001E00005F02AFE0CBC1A60D2F82CC0BCE8F00F57
:1001F00092F826308CF309881BB192F82500CCF8D0
:1002000000006FF0020E704710B5084A1268914264
:1002100009D8074C54F8214090E80F10A047EFF39D
:10022000098C8CE80F0010BD380200203410000843
:100230003410000805F0DAFC114B93E806009142F7
:100240001BD00CB44FF0000381F82630EFF3098C7B
:100250002CE9F00FC1F82CC005F0EEFD0CBC1A60C3
:10026000D2F82CC0BCE8F00F8CF3098892F8263045
:100270001BB192F82530CCF800306FF0020E7047B9
:100280003802002005F0BAFED6E7000005F032FA89
:1002900005F0B4FED0E700000A4880470A4800474E
:1002A000FEE71EF0040F0CBFEFF30880EFF30980A8
:1002B00005F0DAB9FEE7FEE7FEE7FEE7FEE7FEE758
:1002C000FEE7FEE76939000831010008A0F161018D
:1002D000192900D82038704740EA01039B0703D052
:1002E00009E008C9121F08C0042AFAD203E011F875
:1002F000013B00F8013B521EF9D27047421E12F832
:10030000013F002BFBD111F8013B02F8013B002B10
:10031000F9D1704730B505462A460B4612F8010B55
:1003200013F8014B08B1A042F8D01CB1002802D04C
:100330006D1CF1E7284630BD421C10F8011B002956
:10034000FBD1801A704730B504460020034600E018
:100350005B1C934203D2E05CCD5C401BF8D030BD07
:10036000034611F8012B00F8012B002AF9D1184699
:10037000704730B505460020034600E05B1C934201
:1003800005D2EC5CC85C201A01D1002CF6D130BD3E
:1003900070B50F4D00B92868002412E00A4602E04B
:1003A0009E4203D0521C1378002BF9D1DAB22243BB
:1003B00005D02BB124B1002100F8011B04E0044654
:1003C000401C0678002EE9D12860204670BD000050
:1003D0004C02002070B5064604F036F90468054664
:1003E0000A220021304600F0FDF82C6070BD80EA42
:1003F000010210B502F00043400026D04A0023D08D
:100400004FEA106101EB1261C0F35600C2F35602CD
:1004100040F4000042F40002A0FB0220A1F17F01A1
:100420004FEA0040140401D000F1010050EA1240EC
:1004300001D44000491EC2B20C0604EBD010401C8F
:100440004008802A02D003E0002010BD20F0010007
:10045000002900DA0020184310BD00F0004230F0FF
:1004600000400AD0C10D01F56071C0F3160042EAE8
:100470000151C208400711437047002001467047F0
:1004800001F0004330B421F0004150EA010206D0EF
:100490000A0DA2F56072C1F31301002A02DC30BC20
:1004A00000207047440F44EAC104C100E01830BC8A
:1004B00000EBC25000F0CEB830B50B46014600202C
:1004C0002022012409E021FA02F59D4205D303FA16
:1004D00002F5491B04FA02F52844151EA2F1010297
:1004E000F1DC30BD2DE9F05F0546002092469B46C9
:1004F00088460646814640241BE02846414647463A
:10050000224600F0B2FA53465A46C01A914110D31F
:1005100011461846224600F099FA2D1A67EB010899
:100520004F4622460120002100F090FA17EB000907
:100530004E41201EA4F10104DFDC484631462A4624
:100540004346BDE8F09F00000FB4002300B589B01A
:100550000CA900910B996FF00042CB601E4B0693E3
:100560001E4B07930423CDE901321D4A089202462F
:100570006B46002000F02AFB09B05DF814FB70B553
:1005800086B006464FF0FF300091CDE90101002012
:1005900015460C4604903246694604A8FFF7D4FF7E
:1005A00003460498211825B108B10A4600E0224606
:1005B0002A6000280DD0002B02DD0098884208D068
:1005C000081B0094CDE901043246694604A8FFF7F0
:1005D000BBFF06B070BD0000090E0008270E000822
:1005E000B90A00082DE9F04791460F4680460446B7
:1005F000002614F8015B2DB100F05AFA0068405D46
:10060000C007F6D12B2D02D02D2D18D0641E4A46DE
:100610003946204600F018FC27B13968A14201D1C3
:10062000C7F8008071054FF002040BD54042002846
:1006300003DD04F009F80460A007BDE8F08746F484
:100640008066E4E70028F8DA03F0FEFF04606FF04C
:100650000040F2E70029A8BF7047401C490008BFCE
:1006600020F00100704710B4B0FA80FC00FA0CF0E2
:1006700050EA010404BF10BC704749B1CCF120041A
:1006800021FA04F411FA0CF118BF012121430843A7
:10069000A3EB0C01CB1D0106000A002BBEBF0020FE
:1006A00010BC704700EBC35010440029A4BF10BC1D
:1006B0007047401C490008BF20F0010010BC704783
:1006C0002DE9FE4F804681EA0300C00F0C460090E2
:1006D00021F0004123F00045B8EB0200A94105D20A
:1006E0004046214690461C460B46024623F00040F9
:1006F000104304D14046214603B0BDE8F08F270DDA
:10070000C7F30A00C3F30A510290401A019040282F
:1007100066DAC3F3130040F4801B0098924620B1C0
:100720000023D2EB030A63EB0B0B01985946C0F18F
:100730004002504600F08AF906460D46504659469A
:10074000019A00F0A2F910EB08006141002487EA49
:10075000115284EAE7731A433BD0009A3AB3019AE4
:10076000012A4FEA075210DC001B61EB02014FF037
:10077000004202EA0752CDE90042001C41F5801117
:1007800032462B4600F0BCFBB6E7001B61EB0201D2
:10079000001C41F5801300185B412018A2F50017DA
:1007A00047EB030140EAD570B6196D4111E06D08C1
:1007B0004FEA360645EAC0754FEA0752001B61EB67
:1007C0000201001C41F5801149084FEA3000001970
:1007D000514132462B4603B0BDE8F04F00F083BBD9
:1007E0000098012240000023D0EB020263EBE0738B
:1007F000009821464FEAE074B8EB000061EB040179
:10080000E9E783F000435BE781F0004158E72DE919
:10081000FE4F81EA030404F0004421F000410094FB
:100820004FF0000B23F0004350EA010402D052EADB
:10083000030404D10020014603B0BDE8F08FC3F3E8
:100840000A54C1F30A552C44A4F2F3340194A0FBDA
:100850000254C1F3130141F48011C3F3130343F4B1
:10086000801301FB024400FB034E840A970A44EA0A
:10087000815447EA8357A4FB076802958D0A05FB5C
:1008800007854FEA932C04FB0C542705029D4FEA81
:10089000065847EA1637B5EB08056EEB070C870ECE
:1008A000920E47EA811742EA8312A7FB0201B6EBD8
:1008B0000B0164EB00042B0D43EA0C335E1844EB90
:1008C0001C50DA465146E7FB0201C5F313044FEA18
:1008D0000B3343EA14534FEA0432019C43EA060304
:1008E000A4F10C040294009CCDE900B400F008FBD4
:1008F000A2E72DE9F04D81EA030404F0004B21F05A
:10090000004514464FF0000A23F0004150EA05026A
:1009100020D054EA01021DD0C5F30A570246C5F3A0
:100920001303C1F31300C1F30A5640F4801543F4D6
:100930008013A7EB0608101BD64608F2FD3873EBB0
:10094000050002D308F1010801E092185B41B8F1FB
:10095000000F03DA00200146BDE8F08D00204FF4BF
:100960008011064684460EE0171B73EB050705D37E
:10097000121B63EB050306434CEA010C49084FEADE
:10098000300092185B4150EA0107EDD152EA0300B2
:1009900012D082EA040083EA0501084303D1002251
:1009A0004FF0004308E0101BAB4102D201220023AC
:1009B00002E06FF0010253101AEB06004CEB0851F5
:1009C00010EB0A0041EB0B01BDE8F04D00F08BBAD3
:1009D000C1F30A52C1F3130140F2FF3341F4801115
:1009E0009A4202DA00200146704740F233439A42AD
:1009F000A2F2334202DC524200F037B800F026B8CF
:100A000030B5002904DB4FF00044404264EB0101A3
:100A1000002B04DB4FF00044524264EB0303994285
:100A200008BF904230BD0000064C074D06E0E0686C
:100A300040F0010394E8070098471034AC42F6D325
:100A4000FFF77AFB2464000844640008202A04DBD2
:100A5000203A00FA02F1002070479140C2F12003D1
:100A600020FA03F3194390407047202A04DB203A10
:100A700021FA02F00021704721FA02F3D040C2F1BE
:100A800020029140084319467047202A06DBCB1705
:100A9000203A41FA02F043EAE07306E041FA02F339
:100AA000D040C2F12002914008431946704700002F
:100AB000004870472064000810B50446FFF7F8FFAF
:100AC0000068005D00F0010010BD00002DE9FF4F3F
:100AD000087881B09946FF2805D0491C2D2804D0FC
:100AE0000024002308E000230BE00124F9E703EBD6
:100AF000830300EB4303491C0878FF28F7D104B1B6
:100B00005B4200200090147801462D2C01D02B2C44
:100B100004D1521C2D2C12D00024009400251678EC
:100B2000FF2E0ED00A24A0FB04C801FB048100277D
:100B300000FB0711521C16EB0C006941EFE7012482
:100B4000EBE7994450EA010206D101980021C0E97F
:100B5000001105B0BDE8F08F0024A84D2646DFF84F
:100B6000A08200F02DFA82468B46B9F1000002DA2D
:100B7000C9F1000714E0074612E0F80707D0224643
:100B80002B4630464146FFF742FE0646884622463F
:100B90002B4610461946FFF73AFE04460D467F10D5
:100BA000002FEAD1B9F1000F32464346504659466C
:100BB00002DAFFF79EFE01E0FFF729FE009A0AB174
:100BC00081F00041019AC2E90001C2E72DE9FF4F1F
:100BD0001F468DB0D7E901464FF0FF382E2045461D
:100BE0004FF000090B90B9696D1C0E988847396A5F
:100BF000824688470028F6D11AF101000AD024F471
:100C0000D064002E12DDBAF12B0F08D0BAF12D0FEF
:100C10000CD102E0404611B09CE744F48064B9690D
:100C20006D1C0E9888478246A6F10106694660054C
:100C300001D52D2000E02B208DF8000001F1010BE3
:100C40000DF1200809E0B9696D1C0E9888478246AD
:100C50000F98761E44F400740560002E02DDBAF190
:100C6000300FF0D00B998A453ED144F0800406E065
:100C70000F99681CA9F1010944F400740860761EFC
:100C8000B9696D1C0E98884782463028F0D02BE059
:100C90000B998A4505D1200603D444F08004761EC2
:100CA00018E0504603F0CCFD08B3761E0DF1130199
:100CB00044F400748B4508D2AAF130000BF8010B04
:100CC000200607D5A9F1010003E0200602D409F1AE
:100CD00001008146A00502D50F99681C0860B9691A
:100CE0006D1C0E9888478246002ED1DC54E0002E01
:100CF00052DDBAF1650F02D0BAF1450F4CD1A00513
:100D00004AD5761EB96924F440746D1C0E98884744
:100D10008246002E0DDD2B2804D0BAF12D0F08D10C
:100D200044F48074B9696D1C0E9888478246A6F118
:100D30000106E00501D52D2100E02B2108F8011B5B
:100D4000CDF82C8021E0761E0DF1290144F40074C9
:100D500088450CD2AAF1300010F0FF0088F800009E
:100D600002D10B99884509D908F1010806E0E00590
:100D700001D5244801E042F20F708146B9696D1C2B
:100D80000E98884782460F980560002E04DD504675
:100D900003F056FD0028D6D1F9690E988847FF2048
:100DA0008BF8000088F800000020069007904B4662
:100DB0006A4608A906A8FFF789FEA00502D46FF0CD
:100DC000010028E714F0240F0AD0E00714D1DDE970
:100DD00006123868031D3B600068C0E900120BE092
:100DE000DDE90601FFF74CFB0146E00704D1386856
:100DF000021D3A600068016028460CE700002440AC
:100E00000000F03FF1D8FFFF426842B1016811F8DD
:100E1000013B23B1521EC0E9001218467047012160
:100E2000C160881E704742685AB1C368016843B9FF
:100E300083688B4205D0491E521CC0E90012002075
:100E400070474FF0FF3070472DE9F05F8246007821
:100E5000002715468B460AF10104B946302801D017
:100E60009DB113E014F8010B0127782803D058280E
:100E700001D045B10AE00DB1102D07D10027102592
:100E800014F8010B02E0082500E00A250026B04610
:100E90000EE005FB080005FB06F1012701EB1046FB
:100EA0001FFA80F8B6F5803F00D3B94614F8010B5D
:100EB000294600F077F80028EBDABBF1000F05D0E7
:100EC0000FB1641E00E05446CBF80040B9F1000FAA
:100ED00006D003F0B9FB02210160C81EBDE8F09FF7
:100EE00048EA0640FAE710B5002B08DA401C41F149
:100EF000000192185B411A4301D120F0010010BD9E
:100F00002DE9F04D92469B4611B1B1FA81F202E013
:100F1000B0FA80F220329046FFF798FD04460F4663
:100F200040EA0A0041EA0B0153465A46084303D1FE
:100F300020463946BDE8F08D114653EA010015D030
:100F4000C8F140025046FFF790FD05460E46504658
:100F500059464246FFF77AFD084301D0012000E0E0
:100F60000020054346EAE0762C4337430A984FEACF
:100F70004453A0EB08004FEAD4240A304FF000029B
:100F800044EA47544FEAD72502D500200146D1E76D
:100F9000010510196941DDE9084500196941BDE8FD
:100FA000F04DA0E73A2800D2303820F02002412A44
:100FB00001D3A2F13700884201D34FF0FF307047D0
:100FC0000EB540F2334202920022CDE900221346D0
:100FD000FFF796FF03B000BD70B501EB020410F8F7
:100FE000015B15F0070301D110F8013B2A1106D16E
:100FF00010F8012B03E010F8016B01F8016B5B1E88
:10100000F9D12B0705D40023521E0FD401F8013B60
:10101000FAE710F8013B02F10202A1EB030303E03F
:1010200013F8015B01F8015B521EF9D5A142D6D33A
:10103000002070BD000000002DE9F047824677488F
:10104000007877490870002576480678002404E087
:101050007248005D4540601CC4B2B442F8DB6F4882
:10106000805D002D37D16E480078062834D10824E1
:101070006A48C2792146641C6B4842546748027A28
:101080002146641C684842546448C27B2146641C63
:10109000654842546148027C2146641C62484254BF
:1010A0005E48427C2046611CCCB25F490A5400BFB6
:1010B000072404E05C48005D4540601CC4B20F2C6E
:1010C000F8D359480555802058490870FF205849E1
:1010D0000870032008709EE00A242146641C4F48D3
:1010E000405C5449C8702146641C4C48405C5149DE
:1010F00088702146641C4948405C4E49487021462E
:10110000641C4648405C4B490870084600684A49E0
:101110000860601CC4B22046611CCCB23F49085C28
:101120004449C8702046611CCCB23C49085C414926
:1011300088702046611CCCB23849085C3D49487033
:101140002046611CCCB23549085C3A490870084613
:10115000006839494860601CC4B22046611CCCB2AA
:101160002E49085C3349C8702046611CCCB22B491B
:10117000085C304988702046611CCCB22749085C65
:101180002C4948702046611CCCB22449085C29498E
:101190000870084600682849886048682749FFF7B2
:1011A00026F98146FFF759F907463A460B4624A02F
:1011B00003F026FAFF2028490870002027490880FC
:1011C000601CC4B22046611CCCB21449085C1949A9
:1011D000C8702046611CCCB21049085C1549887063
:1011E0002046611CCCB20D49085C1249487020466B
:1011F000611CCCB20949085C0E49087008460068B9
:101200000D49C86000200A4908708020074908700D
:10121000002007490870BDE8F0870000AC8D002071
:10122000D1010020CF0100207A000020CD01002054
:101230005C000020AC010020948A00200000C8421D
:1012400067617567655F74656D70203D20252E327E
:1012500066636D0D0A000000900000208A000020E7
:1012600030B52F4C24782F4D2C7000222E4C217835
:10127000002005E02A4C245C1444A2B2441CE0B2D5
:101280008842F7DB264C635C25464C1C2C5D03EB47
:101290000424A3B29A4241D1224C2478412C3DD15E
:1012A00003200546401C1E4C645D204D2C700546F5
:1012B000401C1B4C645D1D4D6C700546401C184C59
:1012C000645D1A4DAC700546401C154C645D174DAD
:1012D000EC702C462468164D2C600546401C104CC2
:1012E000645D124D2C700546401C0D4C645D0F4D25
:1012F0006C700446451CE8B2094D2C5D0B4DAC707A
:101300000446451CE8B2064D2C5D084DEC702C4699
:101310002468084D2C608024074D2C7030BD0000DF
:10132000AC8D0020D1010020CF010020AC010020B5
:10133000D4010020D8010020CD01002000BF15E01D
:1013400000224FF4C8710120DFF824C000DF0446FA
:10135000012C02D0022C01D101E000E000BF00BF4F
:10136000044801681020DFF810C000DFE8E7000043
:101370006D59000804000020015900080AE04FF4EC
:10138000FA70DFF814C000DF044801684020DFF87D
:1013900010C000DFF3E700008D58000804000020B3
:1013A000015900080023304A30493148DFF8C4C0F1
:1013B00000DF314908600023304A4FF00211304805
:1013C000DFF8B0C000DF2F49086000232E4A27490C
:1013D000891C2E48DFF89CC000DF2D4908600023DF
:1013E0002C4A2D492D48DFF88CC000DF2C490860BD
:1013F00000232C4A2849491C2B48DFF878C000DF1D
:101400002A49086000232A4A2349891C2948DFF811
:1014100064C000DF284908600023284A2849294879
:10142000DFF850C000DF284908600023274A0F4931
:10143000C91D2748DFF83CC000DF264908600023AB
:10144000254A1549491D2548DFF828C000DF2449F1
:1014500008600023234A24492448DFF818C000DF2D
:101460002349086070470000581500200100020061
:101470004D1700088D6000080C00002058790020EE
:1014800045170008240000205813002019150008F3
:1014900008000020581F002004000800BD160008A6
:1014A00014000020581700203D13000810000020F1
:1014B00058310020C51700082000002058020020E5
:1014C000070010007D1300080000002058270020AE
:1014D000F514000818000020582900203D150008C8
:1014E0001C000020581200200A000100C917000843
:1014F0000400002009E05B20DFF810C000DF044892
:1015000001688020DFF80CC000DFF4E78D58000888
:10151000040000200159000809E00A20DFF810C08B
:1015200000DF044801680420DFF80CC000DFF4E7A6
:101530008D58000804000020015900081CB5002047
:10154000009000BF9EE000224FF4C8710720DFF832
:1015500038C100DF0446012C7CD0022C79D1DFF8A1
:101560002CC100DFC0B2009004F020F89DF800000C
:10157000012840D14648007802282BD145A003F02D
:101580003FF80020019010E0434801684FF480705C
:10159000DFF808C100DF4FF4FA70DFF804C100DFA4
:1015A0009DF80400401CC0B201909DF80400202862
:1015B000EADB002001903BA003F022F800203A492A
:1015C0000860022001F09AFF38490870012001F0FC
:1015D00099FF10E02E48007806280CD1FFF72CFD6B
:1015E000002031490860022001F088FF2F4908706F
:1015F000022001F087FF9DF80000022827D124482F
:10160000007806280CD1FFF717FD29A002F0F8FF9B
:10161000022001F073FF25490870022001F072FFDB
:101620001B480078862812D1FFF706FD21A002F0A2
:10163000E7FF002001F062FF1C490870C120144937
:1016400008701D4801680120DFF850C000DF11E07C
:1016500000E00EE0002001F051FF14490870C120A5
:101660000B490870144801680120DFF830C000DF22
:1016700000E000BF00BF084801684FF48070DFF849
:101680001CC000DF5FE700006D5900089D5800088E
:1016900028000020310D0A00040000200159000834
:1016A0008D580008320D0A002C0000202A0000206E
:1016B000340D0A00350D0A001400002000BF00257B
:1016C00033E000224FF4C8710320DFF860C000DF70
:1016D0000446012C1BD0022C1FD1DFF854C000DFC0
:1016E0000546012D0AD113480078C12806D10220F1
:1016F00001F004FF1049087001F046FF022D05D1EA
:101700000C480078412801D1FFF7AAFD06E000202F
:1017100001F0F4FE0849087000E000BF00BF074870
:1017200001680820DFF818C000DFCAE76D5900081B
:101730009D580008280000202A00002004000020F6
:101740000159000801E000F091FFFCE700BF1CE038
:1017500000224FF4FA710120DFF830C000DF0446A8
:10176000012C02D0022C01D101E000E000BF00BF3B
:101770004FF4FA70DFF818C000DF03F021FF0548CE
:1017800001680120DFF810C000DFE1E76D590008B3
:101790008D5800080400002001590008FFF702FEE0
:1017A00009E00A20DFF810C000DF044801682020AB
:1017B000DFF80CC000DFF4E78D58000804000020BB
:1017C0000159000800DE000000BF12E001224FF4C2
:1017D0007A714FF48170DFF81CC000DF0446022CE0
:1017E00005D10548007808B900F0F4F900E000BF21
:1017F00000BFEBE76D5900081701002010B501206C
:1018000001F0A8FB002001F0A5FB10BD08B50146C2
:101810000020009003480090009808440090009831
:10182000008808BD006C004008B500220092044A00
:101830000092009A02440092009A116008BD0000D4
:10184000006C004000BFFEE7014609B9054870473B
:10185000022901D10448FAE7032901D10020F6E763
:101860000020F4E730830020D885002008B532201E
:101870008DF8000001208DF8010000208DF8020095
:1018800001208DF80300684600F0ECFB1E208DF867
:10189000000002208DF8010000208DF802000120D8
:1018A0008DF80300684600F0DDFB1D208DF8000078
:1018B00002208DF8010000208DF8020001208DF833
:1018C0000300684600F0CEFB1C208DF800000220CB
:1018D0008DF8010000208DF8020001208DF8030032
:1018E000684600F0BFFB03208DF8000001208DF852
:1018F000010000208DF8020001208DF803006846E9
:1019000000F0B0FB08BD08B525208DF800000320CD
:101910008DF8010000208DF8020001208DF80300F1
:10192000684600F09FFB26208DF8000004208DF80B
:10193000010000208DF8020001208DF803006846A8
:1019400000F090FB27208DF8000005208DF80100A5
:1019500000208DF8020001208DF80300684600F099
:1019600081FB35208DF8000006208DF80100002055
:101970008DF8020001208DF80300684600F072FB2C
:1019800008BD704710B5402000F012F810B140209B
:1019900000F008F8802000F00BF810B1802000F073
:1019A00001F810BD014908607047000014040140AF
:1019B000014600200022074B1B6803EA0102054B89
:1019C00014331B680B4202D00AB1012000E0002052
:1019D0007047000000040140002123498279002A59
:1019E0003AD00A46126803689A430B461A600A1DE9
:1019F000126803689A430B1D1A60027911440A6841
:101A000003681A430A60184A0832126803689A4346
:101A1000154B08331A601A1D126803689A43124B5B
:101A20000C331A604279102A0ED11A1F126803680B
:101A30001A430D4B08331A601A1D126803681A43C3
:101A4000094B0C331A600DE00749427911440A68CA
:101A500003681A430A6005E0027911440A680368C2
:101A60009A430A60704700000004014030B500222C
:101A70008B071C0F0F2303FA04F20B4B8C1053F847
:101A800024309343084C8D1044F8253023468C10A5
:101A900053F824308C07240F00FA04F42343024C3B
:101AA0008D1044F8253030BD080001402DE9F0418B
:101AB000024600250026002000230024002791F87C
:101AC00003C00CF00F0591F803C01CF0100F03D0F9
:101AD00091F802C04CEA050591F800C0BCF1000F76
:101AE00031D0146800202BE04FF0010C0CFA00F309
:101AF000B1F800C00CEA03069E4220D183004FF0EB
:101B00000F0C0CFA03F7BC4305FA03FC4CEA04047F
:101B100091F803C0BCF1280F06D14FF0010C0CFA6C
:101B200000FCC2F814C00AE091F803C0BCF1480FF1
:101B300005D14FF0010C0CFA00FCC2F810C0401C9B
:101B40000828D1D31460B1F800C0BCF1FF0F34DD18
:101B5000546800202EE000F1080C4FF0010808FA4C
:101B60000CF3B1F800C00CEA03069E4221D18300B9
:101B70004FF00F0C0CFA03F7BC4305FA03FC4CEAD8
:101B8000040491F803C0BCF1280F05D100F1080C42
:101B900008FA0CF8C2F8148091F803C0BCF1480FA1
:101BA00007D100F1080C4FF0010808FA0CF8C2F850
:101BB0001080401C0828CED35460BDE8F0814161FC
:101BC000704700004CF6CC400149086070470000A7
:101BD000003000404AF6AA20014908607047000022
:101BE000003000400149486070470000003000406C
:101BF00001498860704700000030004001490860DA
:101C0000704700000030004000B585B0012105207C
:101C100001F090F90121880301F08CF94FF4007074
:101C2000ADF8100018208DF8130003208DF8120075
:101C300004A99848FFF73AFF4FF48060ADF8100010
:101C400004208DF8130004A99248FFF72FFF4FF4EA
:101C5000E13000900020ADF80400ADF80600ADF8CA
:101C60000800ADF80C000C20ADF80A0069468A485F
:101C700002F038FB012240F22551874802F00CFBAC
:101C80000121854802F0D2FA4021834802F0B6FAD9
:101C90000121082001F04EF910208DF813000320D7
:101CA0008DF812004FF48070ADF8100004A97B4845
:101CB000FFF7FCFE4FF48070784914310860012171
:101CC000402001F037F910208DF8130003208DF823
:101CD00012004FF47050ADF8100004A97048FFF7DF
:101CE000E5FE4FF480606D49103108604000091D29
:101CF000086040000860400008600121052001F0F4
:101D000019F90121480401F005F90420ADF810008B
:101D100018208DF8130003208DF8120004A95D48E7
:101D2000FFF7C4FE0820ADF8100004208DF8130062
:101D300004A95848FFF7BAFE04A95648FFF7B6FEB3
:101D40004FF4165000900020ADF80400ADF80600E6
:101D5000ADF80800ADF80C000C20ADF80A0069469B
:101D6000504802F0BFFA012240F225514D4802F0DE
:101D700093FA01214B4802F059FA4021494802F0F8
:101D80003DFA0121092001F0D5F80121880401F074
:101D9000C1F84FF48060ADF8100018208DF81300E2
:101DA00003208DF8120004A93C48FFF77FFE4FF492
:101DB0000060ADF8100004208DF8130004A9374826
:101DC000FFF774FE04A93548FFF770FE4FF4E130C9
:101DD00000900020ADF80400ADF80600ADF8080052
:101DE000ADF80C000C20ADF80A0069462E4802F050
:101DF00079FA012240F225512B4802F04DFA0121D7
:101E0000294802F013FA4021274802F0F7F901218E
:101E1000312001F08FF80121080501F07BF84FF423
:101E20008050ADF8100018208DF8130003208DF8B5
:101E3000120004A91D48FFF739FE0420ADF8100078
:101E40008DF8130004A91A48FFF730FE4FF416501E
:101E500000900020ADF80400ADF80600ADF80800D1
:101E6000ADF80C000C20ADF80A006946114802F0EC
:101E700039FA012240F225510E4802F00DFA0121F3
:101E80000C4802F0D3F940210A4802F0B7F905B036
:101E900000BD00000008014000380140000C014076
:101EA000001801400044004000480040001001407C
:101EB000001401400050004010B5444844490860F7
:101EC00008460068D0F8D800A0F52A41553971D0ED
:101ED00040493F480068FEF743FA3FA13C4800688C
:101EE0005030FEF73DFA3FA1394800686030FEF7F8
:101EF00037FA3EA1364800686830FEF731FA3BA158
:101F0000334800687030FEF72BFA3AA13048006879
:101F10007830FEF725FA39A12D4800688030FEF7A9
:101F20001FFA37A12A4800688830FEF719FA37A14E
:101F3000274800689830FEF713FA37A12448006854
:101F4000A830FEF70DFA012021490968C1F8B00058
:101F50001F490968C1F8B4003C201D490968C1F84F
:101F6000B80001201A490968C1F8BC0011201849BD
:101F70000968C1F8C000282015490968C1F8C400E3
:101F8000002013490968C1F8C800322010490968C7
:101F9000C1F8CC0023200E490968C1F8D0001420F4
:101FA0000B490968C1F8D4004AF655200849096868
:101FB000C1F8D8000648006890F87D0028B90448A8
:101FC000016878311648FEF7CBF910BD5482002025
:101FD0004800002020610008323031383039233089
:101FE000303031005A594335303000005630312EF0
:101FF0003030000042303030320000003039000014
:1020000034332E32332E3039000000003131322E7D
:1020100034352E3837000000383834382E3500007B
:102020003C0000200146CA1701EB92729210B1EBFE
:10203000820212D1642091FBF0F200FB121050B921
:102040004FF4C87091FBF0F200FB121008B90120A8
:1020500070470020FCE70120FAE70020F8E700BF06
:10206000FEE7704770B5002100230F22C4780CB33F
:10207000164C246804F4E064C4F5E064210AC1F15C
:102080000403CA40447804FA03F1847814402143DD
:1020900009010F4C0678A155047804F01F050124AE
:1020A000AC4005786D114FF0E02606EB8505C5F8CC
:1020B000004109E0047804F01F050124AC40054DFF
:1020C0000678761145F8264070BD00000CED00E062
:1020D00000E400E080E100E002490143024A1160AF
:1020E000704700000000FA050CED00E001490862AD
:1020F0007047000000000E422DE9FF5F054689464B
:102100000026AA4600200AF8090035A15046FEF72D
:1021100001F920B133493448FEF722F95EE000248A
:1021200017E034B931A15046FEF732F93049086062
:1021300006E02EA10020FEF72BF92D4941F82400DE
:102140002B4850F8240000B905E0701CC6B2601C92
:10215000C4B2142CE5DB00BF022E1ED12448416816
:102160002448FEF7FDF82348FEF7E6F8214802F080
:1021700017FF0746FEF784F983461F48C0F800B0F2
:102180001B48006800901D4803781D48026878329B
:102190001CA1154802F044FA20E0012E12D1164885
:1021A0000068FEF75AF9CDE9020111480068009075
:1021B0001248037812480268783218A10A4802F0DF
:1021C0002FFA0BE00A48006800900C4803780C488E
:1021D0000268783218A1044802F022FABDE8FF9F95
:1021E0003F000000E6000020848E00202000000058
:1021F000348E00200C8E0020EC0100208001002095
:10220000480000203C31372C25732C253032642CBB
:1022100025732C542C4E3E0D0A0000003C31372C07
:1022200025732C253032642C25732C25342E3166F1
:102230002C4E3E0D0A0000003C31372C25732C2516
:102240003032642C25732C462C4E3E0D0A000000C3
:102250002DE9F04387B005460F464FF00008A94628
:10226000002009F8070064A14846FEF753F810B1B2
:1022700007B0BDE8F083002419E034B95FA14846F7
:10228000FEF786F85E49086006E05CA10020FEF7D4
:102290007FF85B4941F82400594850F8240000B900
:1022A00007E008F1010000F0FF08601CC4B2142C24
:1022B000E3DB00BFB8F1030F76DB514841685148BA
:1022C000FEF71CF84DA14F48FEF718F84C488168FE
:1022D0004C48FEF713F84B48FEF77CF84A49088053
:1022E0004848401DFEF776F8474988704548083051
:1022F000FEF770F84449C87042480B30FEF76AF8A0
:10230000414908713F480E30FEF764F83E49487174
:102310003C481130FEF75EF83B498871084600885A
:10232000B0F5FA6F41DB0846807800283DDD0846AD
:1023300080780D2839DA0846C078002835DD08464F
:10234000C0781F2831DC0846007918282DDA0846A5
:1023500040793C2829DA084680793C2825DA084665
:1023600080794979DFF8A0C0CDE900109CF80430ED
:102370009CF803209CF80210BCF8000001F05EF805
:10238000064646B11E4803682048027820A1274827
:1023900002F046F92EE01A4803681C48027824A18E
:1023A000224802F03DF925E008E015480368174887
:1023B000027826A11D4802F033F91BE000F088FFE7
:1023C0002B4880792A494979294A1279284BDB78A8
:1023D000CDE90232CDE904102548807824490988E6
:1023E000CDE90010064803680848027821A10F488B
:1023F00002F016F900BF3BE73F000000200000009C
:10240000348E00200C8E0020E4010020800100208A
:102410003C31372C42303030322C253032642C2580
:10242000732C542C4E3E0D0A00000000848E0020B8
:102430003C31372C42303030322C253032642C2560
:10244000732C462C4E3E0D0A000000003C31372C08
:1024500042303030322C253032642C25732C4241EE
:102460004420434F4D4D414E442E2C4E3E0D0A000C
:102470000A0200203C31372C42303030322C2530DB
:1024800032642C25732C253034642D253032642D94
:102490002530326420253032643A253032643A25C2
:1024A0003032642C4E3E0D0A000000002DE9FC5F26
:1024B000054689460027BB46AA4600200AF80900BF
:1024C0004FA15046FDF726FF20B14E494E48FDF77B
:1024D00047FF93E0002417E034B94CA15046FDF7C4
:1024E00057FF4B49086006E048A10020FDF750FF68
:1024F000474941F82400464850F8240000B905E057
:10250000781CC7B2601CC4B2142CE5DB00BF012FDD
:1025100064DD022F55D13E4841683E48FDF720FF5B
:102520003C48FDF709FFC6B2022E67D1002410E037
:10253000384810F80480B8F1300F05DBB8F1390FD6
:1025400002DC4FF0FF0B02E04FF0000B03E0601CD9
:10255000C4B2B442ECDB00BFBBF1000F23D02D4965
:102560002D4800688030FDF7FBFE2A48FDF732FF5A
:102570002A4908704AF6552027490968C1F8D80049
:102580002548016880312648FDF7EAFE20480068AA
:1025900000902248037820480268783221A11A4826
:1025A00002F03EF82AE01A48006800901B480378C1
:1025B00019480268783221A1134802F031F8BDE8C9
:1025C000FC9F134800680090144803781248026882
:1025D00078321AA10C4802F023F8F0E70E480068A0
:1025E00080300B490968CDE900100C4803780A488F
:1025F0000268783217A1044802F012F800BFDEE743
:102600003F00000018010020848E00202000000000
:10261000348E00200C8E0020480000208001002015
:10262000420000203C31372C25732C253032642C9D
:1026300025732C542C4E3E0D0A0000003C31372CE3
:1026400025732C253032642C25732C462C4E3E0DE0
:102650000A0000003C31372C25732C253032642CC5
:1026600025732C25732C4E3E0D0A00000EB54FF03D
:10267000000A00244FF001084FF0FF0B00200190EA
:102680004BE102A802F0BCFF002875D09DF808209D
:102690002046611CCCB2A1490A5423E0FE2C1FD273
:1026A0009DF808202046611CCCB29C490A549DF834
:1026B00008000D2807D09DF808000A2803D09DF8CF
:1026C00008002F280CD14FF0FF0A601EC7B220204F
:1026D0009249C8559DF808000A2801D14FF000081A
:1026E00001F07CF9B8F1000F04D002A802F088FFD5
:1026F0000028D3D1B8F1000F2FD00A2001F064F9DF
:1027000023E0FE2C1FD29DF808202046611CCCB28D
:1027100082490A549DF808000D2807D09DF808004A
:102720000A2803D09DF808002F280CD14FF0FF0A8B
:10273000601EC7B220207949C8559DF808000A28B4
:1027400001D14FF0000801F049F9B8F1000F04D0B1
:1027500002A802F055FF0028D3D1BAF1000F0CD126
:102760006F48FDF7E9FD02466D4900906D48FDF7A1
:10277000B3FD0020019005E009E0002067490855FD
:10278000FF2001904FF001084FF0000A002401F0F3
:1027900025F90198002871D000200190002561489A
:1027A00061A10978017061485FA1097801705B48F7
:1027B000007802909DF80800492831D004DC4128B7
:1027C00007D044285ED112E0522837D0532859D17F
:1027D00040E0042256A15148FDF7B5FD20B9394625
:1027E0004E48FFF789FC01E0681CC5B24DE00922A4
:1027F00051A14A48FDF7A7FD20B939464748FFF7E0
:1028000027FD0CE004224FA14448FDF79CFD20B9B0
:1028100039464248FFF74AFE01E0681CC5B234E081
:1028200003224AA13D48FDF78EFD20B939463B48B9
:1028300000F0A8F801E0681CC5B226E0062244A119
:102840003648FDF780FD10B900F082F901E0681C00
:10285000C5B21AE0062240A13048FDF774FD20B948
:1028600039462E4800F07AF90BE009223CA12B48AA
:10287000FDF769FD18B900F037FB02E014E0681CB1
:10288000C5B202E0681CC5B200BF00BF2548FDF715
:1028900053FD064646B1B2B22249002002F0BEFE08
:1028A000204821A10978017000F012FD2F4890F80E
:1028B000059080790A2808DBCB4506D0CB4600BFBF
:1028C00000202B49086000F0F5FE2A480068B42873
:1028D00004D300202749086000F0CCFE2648007889
:1028E00028B1002024490870012000F0E3FE0A20EE
:1028F00001F06AF821480088142803DB05202049EC
:1029000008700AE01D4800880A2803DB02201C49E1
:10291000087002E000201A490870B2E6A48A00207C
:102920006E630008848E0020000000000C8E0020E2
:10293000414C5420000000004441544554494D4549
:1029400020000000444E4F200000000049442000B9
:10295000524553455420000053454E535420000027
:10296000534E415053484F54200000000A020020AB
:102970006000002064000020160100208A00002072
:10298000150100202DE9FC5F064689464FF000083E
:10299000C346B24600200AF8090052A15046FDF78E
:1029A000B9FC20B150495148FDF7DAFC97E000240A
:1029B00019E034B94EA15046FDF7EAFC4D490860D4
:1029C00006E04BA10020FDF7E3FC4A4941F8240052
:1029D000484850F8240000B907E008F1010000F071
:1029E000FF08601CC4B2142CE3DB00BFB8F1010F78
:1029F00065DDB8F1020F55D13E4841683E48FDF70C
:102A0000AFFC3D48FDF798FCC7B2052F67D1002405
:102A100015E03948055D302D01DB392D07DD412DED
:102A200001DB5A2D03DD612D04DB7A2D02DC4FF032
:102A3000FF0B02E04FF0000B03E0601CC4B2BC428D
:102A4000E7DB00BFBBF1000F1ED02B492B4800680D
:102A50007830FDF785FC4AF6552028490968C1F809
:102A6000D8002648016878312548FDF779FC2148CF
:102A7000006800902348037820480268783222A139
:102A80001A4801F0CDFD2AE01A48006800901D4860
:102A900003781A480268783221A1144801F0C0FD79
:102AA000BDE8FC9F1348006800901648037813485F
:102AB000026878321AA10D4801F0B2FDF0E70F4824
:102AC000006878300B490968CDE900100D4803789B
:102AD0000A480268783218A1044801F0A1FD00BF3D
:102AE000DEE700003F00000092000020848E0020FE
:102AF00020000000348E00200C8E002048000020B2
:102B00003C000020800100203C31372C25732C250F
:102B10003032642C25732C542C4E3E0D0A000000DC
:102B20003C31372C25732C253032642C25732C46F0
:102B30002C4E3E0D0A0000003C31372C25732C250D
:102B40003032642C25732C25732C4E3E0D0A000068
:102B50000120014908707047170100202DE9F04756
:102B6000074689460026BA4600200AF80900C7A190
:102B70005046FDF7CFFB20B1C549C648FDF7F0FB35
:102B800081E1002517E035B9C3A15046FDF700FCEF
:102B9000C249086006E0C0A10020FDF7F9FBBF496B
:102BA00041F82500BD4850F8250000B905E0701C2B
:102BB000C6B2681CC5B2142DE5DB00BF012EDFDDF7
:102BC000032E78D1B5484168B548FDF7C9FBB44834
:102BD000FDF7B2FB00F0FF084246B2A1B048FDF796
:102BE000C8FB68B9AD488168AD48FDF7B9FBAC4892
:102BF00000F090FEC4B20A2C01DAAB480470A5E0E4
:102C00004246AAA1A648FDF7B4FB68B9A34881686B
:102C1000A348FDF7A5FBA24800F07CFEC4B2032C3C
:102C2000EDDAA148447091E04246A1A19C48FDF72D
:102C3000A0FB68B9994881689948FDF791FB9848CD
:102C400000F068FEC4B2032CD9DA974884707DE0A6
:102C5000424698A19248FDF78CFB50B98F48816895
:102C60008F48FDF77DFB8E4800F054FE8E49C870FA
:102C70006CE0424690A18A48FDF77BFB50B987483B
:102C800081688748FDF76CFB854800F043FE864964
:102C900008715BE0424689A18148FDF76AFB58B99B
:102CA0007E4881687E48FDF75BFB7D4800F032FE80
:102CB0007D4948714AE04EE0424681A17848FDF7DF
:102CC00058FB50B9754881687548FDF749FB744851
:102CD00000F020FE7449887138E0424679A17048BE
:102CE000FDF747FB50B96D4881686D48FDF738FB2B
:102CF0006B4800F00FFE6C49C87127E0424672A194
:102D00006748FDF736FB50B9644881686448FDF7B1
:102D100027FB634800F0FEFD6349087216E0424657
:102D20006AA15F48FDF725FB50B95C4881685C48A3
:102D3000FDF716FB5A4800F0EDFD5B49487205E0CF
:102D400063495448FDF70CFBBDE8F08761495148E1
:102D5000FDF706FBF8E7022E71D150484168504854
:102D6000FDF7FEFA4E48FDF7E7FA00F0FF0842468D
:102D70004CA14B48FDF7FDFA30B94B48027856A1FB
:102D8000444801F04DFC7EE0424648A14448FDF72E
:102D9000F0FA30B9444842784FA13E4801F040FC77
:102DA00071E0424642A13E48FDF7E3FA30B93E48A1
:102DB000827849A1374801F033FC64E042463DA1E6
:102DC0003748FDF7D6FA30B93748C27842A13148C2
:102DD00001F026FC57E0424637A13148FDF7C9FA19
:102DE00030B9314802793CA12A4801F019FC4AE087
:102DF000424632A12A48FDF7BCFA30B92A48427946
:102E000035A1244801F00CFC3DE042462CA12448A9
:102E1000FDF7AFFA30B9244882792FA11D4801F09F
:102E2000FFFB30E0424627A11D48FDF7A2FA38B962
:102E30001D48C27928A1174801F0F2FB23E01EE0EB
:102E4000424621A11648FDF794FA30B91648027A95
:102E500021A1104801F0E4FB15E042461BA11048F7
:102E6000FDF787FA30B91048427A1BA1094801F0F2
:102E7000D7FB08E01B490748FDF772FA64E71949D8
:102E80000448FDF76DFA00BF5EE700003F00000058
:102E90003F010020848E002020000000348E00209E
:102EA0000C8E0020313030007401002031303100B0
:102EB00031303200313033003130340031303500C0
:102EC00031303600313037003130380031303900A0
:102ED000836300087D6300083C253031643E0D0AA1
:102EE000000000006E63000801200149087070476F
:102EF0001601002029B1064A52690243044B5A6167
:102F000004E0034A52698243014B5A617047000052
:102F10000010024029B1064AD2690243044BDA612B
:102F200004E0034AD2698243014BDA617047000032
:102F30000010024029B1064A92690243044B9A618B
:102F400004E0034A92698243014B9A617047000092
:102F500000100240014908607047000040044242EE
:102F60000348406A40F080700149486270470000A1
:102F70000010024030B500210022002400232D4D16
:102F80006D6805F00C0121B1042905D0082923D171
:102F900005E0294D056022E0274D05601FE0254D25
:102FA0006D6805F47012234D6D6805F480340225B8
:102FB00005EB92421CB9214D554305600BE01D4DB8
:102FC0006D6815F4003F03D01C4D5543056002E0C9
:102FD000194D5543056002E0174D056000BF00BF65
:102FE000144D6D6805F0F0010909154D6B5C05681D
:102FF000DD4045600F4D6D6805F4E061090A104D34
:103000006B5C4568DD4085600A4D6D6805F4605174
:10301000C90A0B4D6B5C4568DD40C560054D6D68A8
:1030200005F44041890B074D6B5CC568B5FBF3F5B2
:10303000056130BD0010024000127A0000093D0019
:10304000120200202202002010B5014600220023B7
:1030500000204A11012A02D1094C236806E0022A05
:1030600002D1074C236A01E0054C636A01F01F029C
:10307000012494401C4201D0012000E0002010BD3A
:103080000010024000210A4A11700A4A82F82010FA
:10309000012802D0042808D103E00121044A11705C
:1030A00004E00521024A117000E000BF00BF704734
:1030B00020100240001002400149086070470000E3
:1030C0008004424201490860704700003C044242CB
:1030D0000249096A0143014A116270470010024027
:1030E00008B501210820FFF725FF03208DF8020015
:1030F00010208DF803000001ADF800006946024879
:10310000FEF7D4FC08BD0000000C01402DE9F04F93
:1031100004460D461646032D0CDBAC46642094FB9A
:10312000F0F800FB1840C1B2642094FBF0F0C2B28A
:10313000374610E005F10C0000F0FF0C601E4FF068
:10314000640890FBF8F908FB1900C1B2601E90FBFF
:10315000F8F0C2B237460CF101094FF01A0A09FB28
:103160000AF94FF00A0A99FBFAF94FEAE17A01EB02
:103170009A7A01EBAA0A4FEAE27B02EB9B7B0AEB0D
:10318000AB0A4FF0020B0BFB12AAD144B944A9F1D0
:1031900001090FFA89F30BB9072311E0002B0ADAB2
:1031A00058424FF0070890FBF8F908FB1900C0F1EE
:1031B000070003B204E0072093FBF0F800FB18338C
:1031C000D8B2BDE8F08F0000024909888143014A66
:1031D00011807047042800400348008840F0100028
:1031E0000149088070470000042800400348008817
:1031F0004FF6EF71084001490880704704280040ED
:1032000000210022002308480188001D0388001FB8
:103210000288914204D0001D008840EA02407047B5
:1032200043EA0140FBE70000182800400146002067
:10323000064A12880A40D0B2044A121F12880A4273
:1032400002D008B1012000E00020704704280040AF
:1032500010B50120FFF7EAFF08B30120FFF7B4FF24
:103260000F480068401C0E4908600E480068401C6A
:103270000C4908600C480068401C0B4908600B4969
:103280000868411C094A1160092808DD10460068D9
:103290000A2190FBF1F201FB12000449086010BD05
:1032A00084010020880100208C0100209001002072
:1032B00029B1064A12880243044B1A8004E0034AEB
:1032C00012888243014B1A8070470000002800409A
:1032D00070B5002600240025FFF792FF0646374808
:1032E000B6FBF0F436480088A0423AD034490C804E
:1032F00040F2B2750EE02846FEF794FE30B1B4F508
:10330000B77F02D3A4F5B77402E006E0A4F26D140F
:10331000681C85B2B4F5B67FEDD800BF294805809A
:10332000002516E027490888FEF77CFE30B1012D04
:1033300004D11D2C01D31D3C09E00CE02248405D66
:10334000A04203D82048405D241A00E003E0681C36
:1033500085B21C2CE6D200BF681C1A498870601C1C
:10336000C8701648B6FBF0F100FB11644FF46160C1
:10337000B4FBF0F0134908714FF46160B4FBF0F155
:1033800000FB11403C21B0FBF1F00E4948714FF4B5
:103390006160B4FBF0F100FB11403C21B0FBF1F2A5
:1033A00001FB1200074988710B46DA789978188872
:1033B000FFF7ACFE0349C87170BD000080510100E9
:1033C000080200200A0200208963000800B50246B6
:1033D000FFF702FF100C03490880091D0A80FFF760
:1033E00005FF00BD1828004000B50246FFF7F4FEB7
:1033F000C2F3034003490880091D0A80FFF7F6FE67
:1034000000BD00000828004000BF0348008810F0FD
:10341000200FFAD0704700000428004006480088BA
:103420004FF6F77108400449088000BF0248008841
:1034300010F0080FFAD07047042800402DE9F05F23
:1034400006460F4690469946DDE90AAB0024B6F5DC
:10345000FA6F03DB40F63300864202DD0020BDE850
:10346000F09F40F2B2750AE02846FEF7DBFD10B18E
:103470001E48044401E01E480444681C85B2B5425D
:10348000F2DB781EC7B2002510E01A48405D40F21A
:10349000A321484304EBC0143046FEF7C3FD18B126
:1034A000012D01D114480444681C85B2BD42ECDBF7
:1034B000A8F1010040F2A321484304EBC014C9EB7A
:1034C0004910C0EB092004EB0014CAEB0A1004EB0E
:1034D00080045C440120FEF709FEFFF795FF2046BB
:1034E000FFF774FFFFF790FF0120B8E70085E201C6
:1034F0008033E101896300088051010001460846DC
:103500007047000010B5044616480088401C154955
:10351000088034B3002014490870012C09D10C2014
:10352000124908700846027811491248FCF7D4FE87
:103530000AE0022C08D110200C49087008460278D5
:103540000D490C48FCF7C8FE4FF480700B49086029
:10355000012240F227710A4800F09EFE80200949AE
:10356000087010BD8A000020CA010020C901002097
:103570006E000020EC8D00207A000020100C01402D
:1035800000440040CD0100202DE9F04103202A49EC
:103590000870C12029490870FF2029490870487027
:1035A0008870AA20C87024480078087123480078E1
:1035B000487124480078887123480078C871002534
:1035C0001D480078401DC7B2052405E01C48005D79
:1035D000284485B2601CC4B2BC42F7DBEEB2204680
:1035E000611CCCB216490E542E122046611CCCB27E
:1035F00013490E54DD222046611CCCB210490A54F6
:10360000FF222046611CCCB20D490A542046611CA1
:10361000CCB20B490A5400200C4908700C480470C5
:10362000012240F227710B4800F036FE80200A4943
:103630000870BDE8F0810000CE010020D10100201B
:10364000EC8D0020D20100206D000020CA01002076
:10365000C901002000440040CD01002021B10288B2
:1036600042F04002028004E002884FF6BF731A4025
:103670000280704770B5002500240748027807A132
:103680000B4800F0CDFFC5B22C442246084900206B
:1036900001F0C4FF70BD0000800100203C31372CD8
:1036A00042303030322C253032643E0D0A000000AA
:1036B000848E00202DE9FF5F814600250024CB4643
:1036C000394803785A4639A13E4800F0A9FFC5B2EF
:1036D0002C443D4880793C4949793B4A12793A4B20
:1036E000DB78CDE90032CDE9021037498B780A88C2
:1036F0003449081935A100F093FFC5B22C44314973
:10370000081939490B7839490A7839A100F088FF3E
:10371000C5B22C44394948683949FCF768FE039022
:10372000FCF79BFE07460B46264908193A4635A189
:1037300000F076FFC5B22C442249081934490A78B2
:1037400034A100F06DFFC5B22C440020344908605C
:10375000002609E01B4810F806A0314800685044D4
:103760002F490860701C86B2A642F3DB2C48006823
:1037700042F21071B0FBF1F201FB12071149081976
:103780003A4628A100F04CFFC5B2601984B2224627
:103790000C49022001F042FF22460A49002001F0B4
:1037A0003DFFBDE8FF9F00008001002042472C4202
:1037B000303030322C31372C253032642C253032E9
:1037C00064000000848E00200A0200202C25303482
:1037D000642530326425303264253032642530323D
:1037E0006425303264000000820100208101002045
:1037F0002C253033642C253032640000948A00205C
:1038000000007A442C595330312C25352E31660076
:10381000150100202C535432302C25640000000088
:10382000F00100202C253034642C45440D0A0000A2
:1038300010B500F001F810BD0CB50020019000900B
:103840003248006840F480303049086000BF2F489B
:10385000006800F4003000900198401C019000982E
:1038600018B90198B0F5A06FF1D12848006810F49C
:10387000003F02D00120009001E00020009000985D
:10388000012842D12248006840F010002049086019
:103890000846006820F0030008600846006840F011
:1038A00002000860194840681849486008464068A6
:1038B00048600846406840F48060486008464068B8
:1038C00020F47C1048600846406840F4E8104860E6
:1038D0000846006840F08070086000BF0B48006830
:1038E00010F0007FFAD00948406820F00300074933
:1038F00048600846406840F00200486000BF034846
:10390000406800F00C000828F9D10CBD00100240FE
:1039100000200240F0B50446214608782D2802D147
:103920000125491C00E000250022002613E00B7849
:103930002E2B01D1491C0B78302B09DB392B07DCEE
:10394000A3F1300002EB820700EB4702491C00E0C4
:1039500003E0701CC6B20F2EE9DB00BF012D01D1C0
:103960005042F0BD1046FCE710B51348006840F027
:1039700001001149086008464068104908400E4996
:103980004860084600680E4908400B490860084630
:10399000006820F4802008600846406820F4FE009B
:1039A00048604FF41F008860FFF742FF4FF000604F
:1039B0000449086010BD0000001002400000FFF83C
:1039C000FFFFF6FE08ED00E010B504462046DFF8E4
:1039D00008C000DF10BD00008D58000803480168D2
:1039E0000220DFF80CC000DF704700000400002058
:1039F00001590008F0B50C46154600220021068C3E
:103A00004FF6FE773E400684028B018C4FF60C7613
:103A100032407E1C06EA03162E433243104EB0425B
:103A20000ED0104EB0420BD0B0F1804F08D00E4EE9
:103A3000B04205D00D4EB04202D00D4EB04206D17C
:103A40004FF6FD76314044F00106314305E04FF674
:103A5000F576314044F00106314302830184F0BD24
:103A6000002C0140003401400004004000080040E8
:103A7000000C0040F0B50C4615460022002100263F
:103A8000078C4FF6EF7C07EA0C070784028B018C4A
:103A90004FF6FF7707EA041640F6FF473A404FF625
:103AA000FF7707EA03373A434FF6FF7707EA052720
:103AB0003A43114FB8420ED0104FB8420BD0B0F17C
:103AC000804F08D00E4FB84205D00E4FB84202D0FA
:103AD0000D4FB84206D14FF6DF77394046F0100758
:103AE000394305E04FF65F77394044F0100739431A
:103AF00002830184F0BD0000002C0140003401402D
:103B00000004004000080040000C004010B50121F6
:103B1000880700F028F920B30121880700F00EF98A
:103B200010480078401C0F4908700F480068401C7E
:103B30000D4908600D480068401C0C4908600948A0
:103B40000078032190FBF1F201FB120018B900F09C
:103B5000BDF800F0DFF806488078002801DC044852
:103B6000C07810BD5D0000206000002064000020CF
:103B70005000002010B50121044800F0F4F818B1FD
:103B80000121024800F0DAF810BD000000040040F6
:103B900010B50121154800F0E6F830B301211348B3
:103BA00000F0CFF812480068401C11490860114825
:103BB0000078D0B110490868411C0F4A11600228F2
:103BC00013D300200D49088002210D4800F0B9F8F8
:103BD000002202210A4800F0D7F8012009490870A4
:103BE00000200949087000F09FF810BD000800404F
:103BF0002C0000200002002004020020FC01002014
:103C0000000C0040FF010020FE01002010B5022141
:103C10001F4800F0A8F8002839D002211C4800F005
:103C200090F81B4800F09CF81A4908800846008864
:103C300050B308460088184991FBF0F01749086016
:103C40000A6817490888411C154B1980154941F825
:103C5000202018460088302819DB002019460880EB
:103C600002210B4800F06DF800220221084800F004
:103C70008BF801200C49087000200C4908700C4991
:103C8000087000F03DF802E000200449086010BD13
:103C9000000C0040F401002000A24A04F8010020BA
:103CA000FC01002084930020FE010020FF01002081
:103CB0000002002021B1028842F08002028004E06C
:103CC00002884FF67F731A400280704710B509488A
:103CD000007818B106200849087005E0022006495E
:103CE0000870FF200349087004480168012001F0B2
:103CF000BDFC10BD29000020280000201C00002071
:103D000010B503480168022001F0B0FC10BD0000AE
:103D10001C00002010B503480168012001F0A6FC3A
:103D200010BD00001000002010B5034801680420F9
:103D300001F09CFC10BD00001C000020CA43028260
:103D40007047CA430282704721B1028842F00102E3
:103D5000028004E002884FF6FE731A40028070472A
:103D60000146088F704730B502460020002300242A
:103D7000158A05EA0103958905EA010413B10CB11E
:103D8000012000E0002030BD1AB183890B438381FC
:103D900002E083898B43838170472DE9F04105461A
:103DA0000C4600260127608808B9022600E000269C
:103DB000A088012801D1022700E001272088A0B9AE
:103DC0002389A28861882846FFF714FEE1882846E7
:103DD00000F03CF823893A4631462846FFF74AFE70
:103DE000E188284600F03BF813E02389A288618827
:103DF0002846FFF73FFEE188284600F030F8238987
:103E00003A4631462846FFF7F5FDE188284600F09E
:103E10001DF8BDE8F0810A46002101894FF68F7335
:103E2000194011430181704702894FF67F731A4090
:103E3000028102890A430281704702894FF6F873B2
:103E40001A40028102890A4302817047028B4FF6B1
:103E5000F3731A400283028B0A4302837047028B7A
:103E60004FF2FF331A400283028B4FF6FF7303EACF
:103E700001231A4302837047002202881D4B984297
:103E80000ED01D4B98420BD0B0F1804F08D01B4B89
:103E9000984205D01A4B984202D01A4B984204D14E
:103EA0004FF68F731A404B881A43174B984207D02E
:103EB000164B984204D04FF6FF431A40CB881A4362
:103EC00002808B8883850B8803850A4B98420BD030
:103ED000094B984208D00E4B984205D00D4B9842A2
:103EE00002D00D4B984201D10B7A038601238382C5
:103EF00070470000002C01400034014000040040E5
:103F000000080040000C0040001000400014004079
:103F100000400140004401400048014010B540F21B
:103F20002551264800F08EF938B1244800F046FAB1
:103F300040F22551214800F06AF940F227711F48EC
:103F400000F080F9E0B11E480478601C1C4A107033
:103F50001C48015D194800F036FA194800781A49E2
:103F60000978884229DB002240F22771134800F0CB
:103F700093F9012240F22661104800F08DF91CE00F
:103F800040F226610D4800F05DF9B0B10C480078B0
:103F90000D490978884206DB002240F22661074875
:103FA00000F07AF909E006480478601C044A1070B1
:103FB0000448015D014800F006FA10BD00500040C1
:103FC000C10100206C000020C001002010B5024893
:103FD00000F024FA10BD00003083002070B540F2DC
:103FE00025516F4800F02EF9002815D06C4800F0DC
:103FF000E5F9C4B240F22551694800F008F9694872
:104000000078012841D168480078802805D1AA2C81
:1040100002D18120644908707DE0634800788128DE
:1040200014D1802C0EDA83205F4908705F48047039
:104030000078C01C5E49087000205E4908705E4927
:10404000087068E080205849087064E0564800789D
:10405000832860D159485749097844545548007815
:10406000401C54490870002053490870514800789A
:104070004F49097888424ED187204B49087041202A
:104080004F49087000F0B0F845E046480078022833
:1040900041D14548007880281BD1062C01D0862CC0
:1040A00039D1002043490870464804700878411C03
:1040B000404A117041490C54062C03D11D203E4941
:1040C000087002E023203C490870812036490870BE
:1040D00021E03548007881281DD136490878411CF7
:1040E000344A117035490C54104600783249097829
:1040F000884210DB87202C4908702F4800782B4914
:10410000087030480078062802D12D49087002E076
:1041100086202B49087040F22771214800F092F860
:10412000E0B129480578681C274A10702748415D8E
:104130001B4800F048F9244800782549097888424E
:104140002DDB002240F22771154800F0A5F801226E
:1041500040F22661124800F09FF820E040F226610C
:104160000F4800F06FF8D0B1174800781849097867
:1041700088420ADB002240F22661094800F08CF8F0
:104180004FF480701349086009E00F480578681CF7
:104190000D4A10700D48415D014800F014F970BDE2
:1041A000004400402A000020CD010020CF01002063
:1041B000CB010020CC010020D0010020AC8D0020DC
:1041C0002800002091000020CA010020EC8D002072
:1041D000C9010020140C014010B5024800F01EF97E
:1041E00010BD0000D885002010B5034801680220EA
:1041F00001F03CFA10BD00001400002001F4007230
:10420000B2F5007F00D100BFCA430280704710B5ED
:1042100000220023A1F510646A3C00D100BF0A12FD
:1042200001249440A3B2DC43048010BD21B18289F3
:1042300042F40052828104E082894DF6FF731A40F5
:104240008281704770B502460024002300250020BB
:10425000A1F510666A3E00D100BFC1F3421501F01E
:104260001F03012606FA03F3012D02D1968933407C
:1042700006E0022D02D1168A334001E0968A3340CF
:104280000C12012606FA04F41688344013B10CB15E
:10429000012000E0002070BDF0B503460024002698
:1042A00000250020A1F510676A3F00D100BF184625
:1042B000C1F3421401F01F06012707FA06F5012C8D
:1042C00001D10C3004E0022C01D1103000E0143098
:1042D0001AB107682F43076002E00768AF43076021
:1042E000F0BD00002DE9F04786B005460E460024DB
:1042F000A24600BFA1460027B08900B100BF2F46EB
:104300002C8A4CF6FF700440F08804432C82AC8960
:104310004EF6F3100440B088318908437189084390
:104320000443AC81AC8A4FF6FF400440B08904439B
:10433000AC8201A8FEF71EFE1F48874202D1DDF8BD
:1043400010A001E0DDF80CA0A88910F4004F08D0FF
:104350000AEBCA0000EB0A1031684900B0FBF1F823
:1043600007E00AEBCA0000EB0A1031688900B0FBD5
:10437000F1F86420B8FBF0F004012009642101FB8E
:104380001089A88910F4004F08D0322000EBC90032
:10439000B0FBF1F000F00700044308E0322000EB2E
:1043A00009106421B0FBF1F000F00F0004432C81F0
:1043B00006B0BDE8F087000000380140014688885B
:1043C000C0F308007047C1F308028280704770B5DF
:1043D00004460D46012000F050F9668B002000F0E5
:1043E0004CF90EB9002070BD228BA168885CFBF7E8
:1043F0006DFF2870012000F040F9208B401C80B236
:104400002083E189884201DB00202083608B401EED
:104410006083002000F031F90120E4E710B5044684
:1044200040F225512068FFF70DFFE0B12068FFF74B
:10443000C5FFE28AA1688854E08A401C80B2E0820D
:10444000E189884201DB0020E082608BE1898842BB
:1044500002DA608B401C6083608B012803D1606AA4
:1044600008B1606A804740F227712068FFF7EAFED2
:1044700008B3A08A60B9002240F227712068FFF7D4
:104480000BFF012240F226612068FFF705FF37E0AD
:10449000638A6268D15C2068FFF795FF608A401CE0
:1044A00080B26082A189884201DB00206082A08AFC
:1044B000401EA08224E040F226612068FFF7C2FE81
:1044C000F0B1A08A50B9002240F226612068FFF7BF
:1044D000E3FE206AA0B1206A804711E0638A626827
:1044E000D15C2068FFF76FFF608A401C80B2608259
:1044F000A189884201DB00206082A08A401EA08240
:1045000010BDF8B504460E46174600252FE014E00E
:10451000012000F0B2F8A08A0090002000F0ADF871
:10452000A089BDF80010884200DD07E0012240F2BA
:1045300027712068FFF7B0FE00BFE9E700BF705D9C
:10454000228A61688854012000F097F8208A401C74
:1045500080B22082A189884201DB00202082A08ACB
:10456000401CA082002000F088F8681C85B2BD4283
:10457000CDDB012240F227712068FFF78DFEF8BDE8
:1045800016481749086017484860174888604FF474
:10459000007088818020C881002008824882C882FB
:1045A000088348838882C861086248620F481049BE
:1045B000086010484860104888604FF48060888127
:1045C0008020C881002008824882C88208834883EE
:1045D0008882C86108624862704700000038014064
:1045E0003083002058830020588500200048004078
:1045F000D885002000860020008A002000BFFEE74A
:104600000FB4054B10B503A9044A029800F020F935
:1046100010BC5DF814FB00004D5600084C00002053
:104620000FB4084B10B504A902AA039800F010F9C2
:10463000044602A9002000F0AEFC204610BC5DF844
:1046400014FB0000974F00080048704750020020FC
:1046500001480068704700005002002002E008C8CE
:10466000121F08C1002AFAD170477047002001E0EC
:1046700001C1121F002AFBD1704780F310887047D8
:104680000149086070470000500200202DE9FF5FDB
:10469000DDE90220010DDDF838B0024310D10F989A
:1046A00001244CA2012808D0002100980F9BC0E9EA
:1046B0000021C0E90243BDE8FF9F6FEA0B01F4E768
:1046C000A1F2FF3144F6105041430D140F98012818
:1046D0000ED0A5EB0B00401C4FF000043E4EDFF85F
:1046E000FC90B0F1000AA04605DACAF1000717E015
:1046F000CBF10000F0E7074612E0F80707D02246AA
:10470000334640464946FCF782F8804689462246B1
:10471000334610461946FCF77AF804460E467F10D9
:10472000002FEAD1DDE90201BAF1000F42464B4603
:1047300002DAFCF76CF801E0FCF7DBF804460E4601
:104740000022274BFCF75CF903D84FF0FF300146FD
:1047500007E00022234B20463146FBF7B1FFFCF770
:1047600037F9102409E0002C0ADB0A220023FBF7AA
:10477000B9FE019B30321A55641E50EA0102F2D193
:10478000641C019AC4F1110314440F9A012A09D040
:104790000122084301D15B450FDD4FF0000205F116
:1047A00001050DE0084303D1A3EB0B056D1E09E0E5
:1047B00000204FF0110B0F9088E701DA00226D1EE8
:1047C000002A83D000980F99C0E90231C0E9004562
:1047D00071E7000030000000000024400000F03FBE
:1047E0000000F0430000E03FF0B503460E4612F033
:1047F000004F06D022F00040C01D20F00702102517
:1048000003E0D01C20F003020C250AB90120F0BD02
:104810005019B04201D90120F9E7591919609F19BF
:104820005F609A60BF1A05E08C18BC4200D902E0B4
:104830000C602146F8E700BF0020086000BFE6E7F3
:1048400030380A2801D2012070470020704700004C
:104850002DE9FF4F95B09B4689460646002512E29A
:10486000252878D10024761CF94A27460121059491
:104870003378203B01FA03F0104202D00443761C47
:10488000F6E730782A2811D06FF02F033078A0F1A6
:104890003002092A16D8059A44F0020402EB82027B
:1048A00003EB42021044761C0590EFE759F8042B05
:1048B0000592002A03DA504244F40054059044F073
:1048C0000204761C30782E2816D116F8010F44F019
:1048D00004042A280DD06FF02F023078A0F13003A5
:1048E000092B09D807EB870302EB4303C718761C93
:1048F000F3E759F8047B761C30786C280FD006DC7F
:104900004C2817D068280DD06A2814D104E07428E8
:1049100010D07A280FD10DE044F400140AE044F4DA
:10492000801401E044F440147278824202D1761C73
:1049300004F58014761C307866280BD013DC5828D8
:1049400077D009DC002875D04528F6D04628F4D069
:1049500047281AD19FE118E0632835D0642879D020
:10496000652812D197E1702873D008DC6728F1D050
:1049700069286FD06E280DD06F2806D1B5E0732856
:104980002CD0752875D0782874D05A46179990473E
:104990006D1C76E1C4F30250022809D003280DD023
:1049A000D9F8001004280DD00D6009F1040968E160
:1049B000D9F80010EA17C1E90052F6E7D9F800105B
:1049C0000D80F2E70D70F0E719F8041B8DF8001068
:1049D00000208DF80100EA46012003E059F804ABFD
:1049E0004FF0FF3061074FF0000102D40DE008F1F5
:1049F00001018846B9420FDA8045F8DB1AF8081041
:104A00000029F4D108E008F1010188468142FADB6F
:104A10001AF808100029F6D105985B46A0EB0807A4
:104A200021463846179A00F09EFA284400EB080504
:104A300007E04DE02BE10DE01AF8010B5A461799FB
:104A40009047B8F10108F7D25B4621463846179ADD
:104A500014E142E00A220092C4F302524FF0000A2D
:104A6000022A08D059F804CB032A4FEAEC710AD085
:104A70000DE029E02AE009F1070121F00702F2E840
:104A800002C1914609E00FFA8CFC4FEAEC71042A4E
:104A900003D14FFA8CFC4FEAEC71002907DA0A4681
:104AA0000021DCF1000C61EB02012D2202E0220565
:104AB00004D52B228DF80420012203E0E20701D067
:104AC0002022F7E7904653E00A2102E010220DE091
:104AD00010214FF0000A00910BE010224FF0000A65
:104AE00044F004040827009203E008224FF0000A73
:104AF0000092C4F30252022A05D059F804CB0021D7
:104B0000032A08D009E009F1070121F00702F2E8C1
:104B100002C1914605E01FFA8CFC042A01D10CF079
:104B2000FF0C4FF00008220722D5702827D0009BE9
:104B300083F0100353EA0A0309D15CEA010206D0AC
:104B400030228DF804208DF8050002229046009B4B
:104B500083F0080353EA0A030AD15CEA010201D197
:104B6000620705D530228DF804204FF001087F1E22
:104B7000582809D037A003900EA8029013E04022D5
:104B80008DF804200122E1E737A0F4E753466046A0
:104B9000009AFBF7A7FC84460398825C0298A0F178
:104BA0000100029002705CEA0100EFD1029806A9B0
:104BB000A1EB000000F1200A600702D524F4803444
:104BC00000E00127574502DDA7EB0A0000E00020C6
:104BD00000EB0A01009005984144A0EB010005900C
:104BE000E00306D45B462146179A059800F0BBF90E
:104BF0000544002706E001A85A46C05D1799904772
:104C00006D1C7F1C4745F6DBE0030CD55B46214657
:104C1000179A059800F0A7F9054404E030205A4699
:104C2000179990476D1C0099481E00900029F5DCEB
:104C300008E0029802995A460078491C0291179997
:104C400090476D1CBAF10001AAF1010AF1DC6BE199
:104C50000928010030313233343536373839616252
:104C60006364656600000000303132333435363716
:104C700038394142434445460000000000F060F9E5
:104C8000054406F10106307800287FF4E9AD19B03B
:104C90002846BDE8F08F620700D4062709F1070215
:104CA00022F0070CFCE80223E14603F000485FEA2B
:104CB000080C02D00FF27C2C0DE05FEA045C02D5F8
:104CC0000FF2742C07E05FEAC47C02D00FF26C2C68
:104CD00001E0AFF2700C4FF0FF3823F00043CDF845
:104CE00050C065280CD006DC452809D046281DD0C8
:104CF00047283ED13EE0662818D0672839D139E0F0
:104D00000021112F01DB112000E0781CCDE900010A
:104D100006A90EA8FFF7BAFCDDE90F010E9A039170
:104D20000021009207F1010A04914EE04FF000408B
:104D30000097CDE9011006A90EA8FFF7A7FCDDE951
:104D40000F0203920E9B11990022DDF80CA0009334
:104D5000049219B907F1010100EB010AB7EB0A004F
:104D600004D4C0F1FF3007F1010A0490AAEB070058
:104D7000019046E0012F00DA01270021112F01DD0B
:104D8000112000E03846CDE9000106A90EA8FFF782
:104D90007DFCDDE90F010E9A039100210491009240
:104DA000BA4621070CD40399514500DA8A46BAF174
:104DB000010F05DD009AAAF10101515C302908D0EC
:104DC000B84202DA10F1040F06DA0121CDE9011030
:104DD00017E0AAF10101E9E7002805DC0499014484
:104DE0000491AAEB000102E0411C514500DD8A4616
:104DF0000499A0EB010000F1010001904FF0004088
:104E00000290200704D40198504501DBCDF80480BE
:104E100000208DF84F0002980DF14F07B0F1004FC0
:104E200025D02B200E9002984FF0020800280CDAB3
:104E3000404202902D200E9007E00A210298FBF7D5
:104E40003BFB3031029007F8011DB8F10001A8F1D9
:104E50000108F2DC02980028EFD1791E0E98087044
:104E6000307800F0200040F0450007F8020D12A84D
:104E7000A0EB070000F107081498007800B10120AA
:104E800000EB0A01019801EBE07105984144A0EBA9
:104E90000100A0F101000590E00306D45B46214625
:104EA000179A059800F05FF805441498007820B12F
:104EB0005A461799904705F10105E00323D55B4653
:104EC0002146179A059800F04EF805441BE0049817
:104ED000002807DBDDE90301884203DD0098405C20
:104EE000179901E0179930205A46904704986D1C95
:104EF000401C04900198401E019004D12E205A4677
:104F0000179990476D1CBAF10001AAF1010ADEDC85
:104F100005E017F8010B5A46179990476D1CB8F138
:104F20000001A8F10108F4DC5B462146179A0598B8
:104F3000A4E600002D0000002B000000200000006F
:104F40002DE9F041044600251E461746880405D485
:104F500006E039462020B04705F10105641EF8D56A
:104F60002846BDE8F0812DE9F041044600251E46A3
:104F70009046C80301D5302700E02027880405D5D6
:104F800006E041463846B04705F10105641EF8D5F4
:104F90002846BDE8F0810A68531C0B60107070470A
:104FA00030B583B004460020CDE90000FFF750FB88
:104FB0000546002221466846FBF7E1FA2846FFF73E
:104FC0005FFBDDE9000103B030BD00000EB54FF41A
:104FD0004070FDF781F800F0DFFA00F00BF900F007
:104FE0009DFA00F039F9FCF767FF40F6354000F014
:104FF000E1F800F02FF800F043FAFEF769F90848ED
:10500000807907494979064A1279CDE90021029051
:105010000348C3788278018802A0FFF7F1FA0EBD39
:105020000A020020253034642D253032642D2530CD
:10503000326420253032643A253032643A253032E9
:10504000642053797374656D205265736574210D06
:105050000A00000000B587B001210846FDF75AFF9D
:1050600001210220FDF756FF01210420FDF752FF28
:1050700001210820FDF74EFF01210420FDF75AFF12
:105080000120ADF8000003208DF8020048208DF8C3
:10509000030069464348FCF709FD40F6C310ADF82C
:1050A000140041F61F40ADF810000020ADF81600C6
:1050B000ADF8120004A93C48FEF7DEFE01213A4893
:1050C000FEF73CFE012211463748FEF75DFE012146
:1050D0003548FEF739FE42F20F70ADF8140041F684
:1050E0001F40ADF810000020ADF81600ADF812001A
:1050F00004A94FF08040FEF7BFFE01218807FEF7AC
:105100001DFE012211469007FEF73EFE0121880791
:10511000FEF71AFE1320ADF8140048F69F40ADF8D4
:1051200010000020ADF81600ADF8120004A91F48C9
:10513000FEF7A2FE01211D48FEF7BCFD01211B4820
:10514000FEF702FE012211461848FEF71DFE002060
:10515000ADF80400ADF806000120ADF8080000200D
:10516000ADF80A00ADF80C0001A91148FEF715FED4
:1051700050210F48FEF74FFE04210D48FEF75DFE5B
:1051800080210B48FEF750FE01210948FEF7DCFDA7
:10519000002202210648FEF7F7FDFCF767FB07B087
:1051A00000BD00000008014000040040000800406D
:1051B000000C004010B504467D20FDF745FF08B106
:1051C000FDF7CEFE0120FDF777FF00BF6120FDF760
:1051D0003BFF0028FAD045F25550FCF70FFD0520A3
:1051E000FCF700FDA0B2FCF703FDFCF7F3FCFCF7B5
:1051F000E9FC10BD08B501211020FDF79BFE04203D
:105200001449086102200861086101200861032037
:105210008DF8020010208DF803000420ADF8000086
:1052200069460C48FCF742FC0220ADF800006946D4
:105230000848FCF73BFC0220ADF800006946054831
:10524000FCF734FC0120ADF8000069460148FCF78A
:105250002DFC08BD001001401FB501212020FDF7E5
:1052600069FE01214802FDF765FE01210846FDF7B0
:1052700041FE4FF47F40ADF80C0003208DF80E0086
:1052800004208DF80F0003A96D48FCF70FFCC02027
:10529000ADF80C0003208DF80E0004208DF80F00EF
:1052A00003A96748FCF702FC2020ADF80C000020A1
:1052B0008DF80F0003A96248FCF7F8FB06210320D4
:1052C000FCF7D4FB4020019000208DF80800082056
:1052D0008DF8090001208DF80A0001A8FCF77CFB7D
:1052E00007210320FCF7C2FB8020019000208DF8ED
:1052F000080008208DF8090001208DF80A0001A897
:10530000FCF76AFB17208DF8000000208DF80100E3
:1053100005208DF8020001208DF803006846FCF797
:10532000A1FE01210802FDF705FE3F20ADF80C00AB
:1053300003208DF80E0010208DF80F0003A94148BE
:10534000FCF7B4FB01213F48FCF739FC02213D4842
:10535000FCF735FC04213B48FCF731FC08213948B7
:10536000FCF72DFC10213748FCF729FC202135489B
:10537000FCF725FC34483549086035483549086054
:1053800035483649086036483649086000203649B5
:1053900008602E49486035482E4948602E482F49FC
:1053A00048602F482F49486000202F49486027490E
:1053B00088602F48274988602948284988602D48F7
:1053C000284988600020284988602049C8602A4808
:1053D0002049C86020482149C86021482149C86047
:1053E00000202149C860194908612348194908610A
:1053F00019481A4908611A481A49086100201A49CF
:105400000861124948611C48124948611248134911
:1054100048611348134948610020134948610B490A
:1054200088614FF081400B49886114480B498861BD
:105430004FF081400B49886100200B4988611FBDF6
:105440000014014000200140000048C2A48B00204D
:1054500000004842DC8B00200000A040148C00209B
:10546000000020414C8C0020848C00200000C842A9
:105470000000B4430000A041000070420000404022
:105480001CB501214FF0C050FDF744FD0120FCF791
:105490002DFE0420FCF7BAF9A0F52541A53932D03C
:1054A000FCF7ACF90120FDF7EDFD00BF4120FDF751
:1054B000CBFD0028FAD04FF48070FDF709FE0120E3
:1054C000FDF700FEFDF7AAFFFDF79EFF00201E215D
:1054D00012231C22CDE90010082140F2E270FDF7F2
:1054E000ADFF4AF2A5510420FCF79EF947F6FF7084
:1054F000FDF77AFFFDF788FF01210846FDF7D8FE8A
:10550000FDF782FF09E0FDF789FFFDF77DFF01212F
:105510000846FDF7CDFEFDF777FF1CBD08B501215C
:105520000803FDF707FD01210420FDF703FD182006
:105530008DF8030003208DF802002020ADF8000054
:1055400069461348FCF7B2FA4020ADF800006946FE
:105550000F48FCF7ABFA8020ADF8000069460C4814
:10556000FCF7A4FA4FF44B7000F034F80948808B34
:105570004FF2FF7108400749888307200882002105
:105580000448FEF76BF801210248FEF767F808BDF2
:10559000000801400030014010B5FEF7F1FFFCF7B4
:1055A00033FBFDF79DFDFCF7AEF910BD0348C06865
:1055B00080F004000149C8607047000000100140FD
:1055C0000348C06880F002000149C86070470000CD
:1055D000001001400949098801F441510143074A7B
:1055E0001180114609884FF6BF721140034A11809D
:1055F0001146098841F04001118070470030014098
:1056000070B50446044D0DB9002070BD21462846F2
:10561000FEF7DDFEF9E70000308300202DE9F041C0
:1056200005460E4617462846FCF70EF904460CB907
:10563000BDE8F081E06908B1E06980473A4631464B
:105640002046FEF75EFF00BFF2E7000000BF054AFC
:10565000128812F0400FFAD0C2B2024B1B1D1A8002
:10566000704700000038014000BFFEE770B50446F7
:105670000E46701E064951F8205005B970BD2146EE
:10568000284600F017FB00F003FB00BFF6E7000020
:105690002C820020FFF79AFCFAF75AFD034A0449CE
:1056A0000448DFF814C000DF00BFFEE758390020CF
:1056B000050040009D170008795E000800BFFEE766
:1056C00000BFFEE700BF094800684FF0E0214861D5
:1056D00000208861072008610548006840F07F408D
:1056E0000349086000BF48177047000004610008C4
:1056F00020ED00E070477047014600BF51E8000F01
:1057000010B9BFF32F8F04E0036841E80032002A8C
:10571000F4D100BF7047000070B504460D4694B147
:105720004FF6FF70844204DA07490868214600F00A
:10573000FBFA054800684570044800F077F9064612
:10574000304600F091FB70BD3802002044940020E8
:1057500010B5124800681249496888420BD01048B9
:1057600040680E4908600846C0880E490988084408
:10577000401E0A498880094880880A49098889B2F8
:1057800088420AD1002005490860054800F04EF91A
:1057900004462146024800F0F5FA10BD2802002018
:1057A000449400204002002010B52148C06800B990
:1057B00010BD1F48808A401E1D4988822EE01C486B
:1057C000C468A06858B1D4E901014860606820B19C
:1057D000D4E901108860002060600020A0602146AC
:1057E000144800F0CFFAA08A114988826078042812
:1057F00004D1E08A104909880844A0820120607021
:1058000084F825000A49E068C860E06820B10846CD
:10581000E16808610020E060002020610448808A7F
:1058200018B90348C0680028C9D100BFC0E700000C
:105830005C940020449400204002002010B50446EF
:105840003CB9104800F0F2F80446204600F00CFB8A
:1058500017E0A0780C490968897888420BDD0A496D
:10586000086800F0AFFA012007490968487020462F
:1058700000F0FAFA05E0012060702146014800F0CE
:1058800081FA10BD449400203802002010B504466F
:1058900003212046FFF740FF10BD000001480068CB
:1058A000408B70473802002070B504460E46208BAE
:1058B00030432083658B6078062804D1208B2840F4
:1058C000A84200D10AE06078052816D1208B284232
:1058D00013D0608B218B0840608300BF208BA843CE
:1058E0002083204600F078FA01206070022084F8BE
:1058F00025002146014800F045FA70BD449400207F
:1059000070B505460E46701E174951F8204004B97F
:1059100070BD208B28432083658B6078062804D1D6
:10592000208B2840A84200D10AE06078052818D1D1
:10593000208B284215D0608B218B0840608300BFEC
:10594000208BA8432083204600F046FA208BA843F2
:10595000208301206070022084F825002046FFF794
:105960006DFF00BFD4E700002C8200202DE9F0413C
:1059700004460E4617468FB118480068008B204039
:10598000A04209D115480068008BA043134909685B
:1059900008830220BDE8F081062515E00F48006865
:1059A000008B20420FD00D480068008B20400B492F
:1059B0000968488309480068008BA04307490968C3
:1059C00008830220E6E70525044800684483E9B21D
:1059D0003046FFF7A1FE0120DCE70000380200207E
:1059E0000246914202D35068884201D80120704794
:1059F00000BF52E8000F086042E800100028F8D10C
:105A000000BFF4E7012107E0481E064A52F82000D3
:105A100008B908467047491C034800888142F3D9F9
:105A20000020F7E72C820020F86000080146486853
:105A300042684A600A78022A05D00A78012A02D010
:105A40000A78032A08D142681AB14268916000229C
:105A500042600022826001E0002242607047000044
:105A600070B504460D461646002020700120607077
:105A7000A57084F8245000206060A060E060206180
:105A80002062A082E0822083608384F8250084F86D
:105A90002600208D18B90448FFF72EFE20633146FA
:105AA000204600F00FF870BD987D002000200349CB
:105AB000086003480088C880704700002802002062
:105AC0000061000870B502460B46158DAC101CB97C
:105AD0000F4D2D88C5F38D04156B05EB840010F078
